:100000000C9430140C9461140C9461140C946114CD
:100010000C9461140C9461140C9461140C9461148C
:100020000C9461140C9461140C9461140C9461147C
:100030000C9461140C9461140C9461140C9461146C
:100040000C9461140C94CF930C9461140C9461146F
:100050000C9461140C9461140C94A0610C94B4ABD6
:100060000C9461140C94CD350C94C3350C9461142C
:100070000C9461140C9461140C9461140C9461142C
:100080000C9461140C9461140C9461140C9461141C
:100090000C9461140C9461140C9461140C9461140C
:1000A0000C9461140C9461140C9461140C946114FC
:1000B0000C9461140C9461140C9461140C946114EC
:1000C0000C9461140C9461140C9461140C946114DC
:1000D0000C9461140C9461140C9461140C946114CC
:1000E0000C946114423348334E335A336633F5333C
:1000F00072337B33843390339C33A833B933C533A5
:10010000F533D133DD33E9333FAD42AD31AD35ADFC
:1001100039AD79AD46AD4AAD50AD54AD58AD5EADDB
:1001200062AD66AD79AD6CAD70AD74AD084AD73BCC
:100130003BCE016E84BCBFFDC12F3D6C74319ABDB6
:1001400056833DDA3D00C77F11BED9E4BB4C3E91DA
:100150006BAAAABE000000803F05A84CCDB2D44EC9
:10016000B93836A9020C50B9918688083CA6AAAACB
:100170002ABE000000803F000C94AB480C949033E2
:100180000C947A4B0C9432510C94FF500C942F4EDB
:100190000C94ED480C94BA500C9454AD0C94604DF2
:1001A0000C9450AD0C9413490C9412740C94CCA480
:1001B0000C945A330C94397B0C9409520C944233AE
:1001C0000C941B7B0C94B1510C944E330C941B5328
:1001D0000C9470A70C9463A30C940E510C94457E60
:1001E0000C94414D0C94F94D0C9458AD0C942EA0E8
:1001F0000C94D1330C9404510C94FD730C94B96895
:100200000C94F9500C941E600C940F7B0C940174A8
:100210000C94AC730C94F5330C94277B0C94414BE9
:100220000C942C490C9472330C946E4B0C94E9335F
:100230000C94687E0C9454AB0C946CAD0C940357E6
:100240000C94E7500C945B4B0C94C6500C94084EE5
:100250000C94AB510C943C4B0C94F3500C94B75150
:100260000C941F600C944AAD0C9453600C9418AB22
:100270000C94DA4D0C9470AD0C94BE500C9474AD8B
:100280000C94024F0C945EAD0C94B19C0C9446AD52
:100290000C947F480C9431AD0C94DD330C94936036
:1002A0000C949E500C9484330C9435AD0C94C5334F
:1002B0000C9466330C94157B0C9486500C949C33F0
:1002C0000C94B1500C943FAD0C9425AB0C9479ADCB
:1002D0000C9439AD0C9410520C9442AD0C941674DD
:1002E0000C94204E0C9409510C94B3A10C944549E4
:1002F0000C9492480C94007B0C94D0560C94B94802
:100300000C946A7E0C94464B0C94727E0C944F4B6A
:100310000C94217B0C944B4B0C94BC500C94707E31
:100320000C94B9330C94F15A0C94EEAA0C9444B585
:100330000C94744B0C947B330C946C7E0C94955001
:100340000C94747E0C948D540C9400490C941351AD
:100350000C94647E0C94174E0C94E77A0C94A8339A
:100360000C9404560C9448330C94C9A40C948050FB
:100370000C9462AD0C94337B0C94EDBE0C9439ABB1
:100380000C944E7C0C94667E0C94D2480C942D7B7D
:100390000C946E7E0C9466AD4E414E494E495459B4
:1003A000494E46CDCCCC3D0AD7233C17B7D1387740
:1003B000CC2B329595E6241FB14F0A000020410056
:1003C00000C84200401C4620BCBE4CCA1B0E5AAEA0
:1003D000C59D7400407A10F35A00A0724E180900AF
:1003E00010A5D4E80000E87648170000E40B54029A
:1003F0000000CA9A3B000000E1F5050000809698D5
:1004000000000040420F000000A086010000001024
:100410002700000000E80300000000640000000066
:10042000000A00000000000100000000002C76D847
:1004300088DC674F0823DFC1DFAE59E1B1B796E52D
:10044000E3E453C63AE651997696E8E6C28426EB91
:10045000898C9B62ED407C6FFCEFBC9C9F40F2BAA4
:10046000A56FA5F490055A2AF75C936B6CF9676D3C
:10047000C11BFCE0E40D47FEF520E6B500D0ED9091
:100480002E0300943577050080841E080000204E5E
:100490000A000000C80C333333330F986E128311F7
:1004A00041EF8D2114893BE65516CFFEE6DB18D1CE
:1004B000844B381BF77C1D901DA4BBE424203284A0
:1004C000725E228100C9F124ECA1E53D27434F4D26
:1004D0004D554E49434154494F4E0044525952558F
:1004E0004E004552524F525300494E464F0045432D
:1004F000484F006F6B002028302D313029002076C6
:10050000616C7565206F7574206F662072616E670F
:100510006500416476616E6365204B3D002058594B
:100520003A2000536B657720466163746F72006DEB
:10053000696E5F736B65775F666163746F723A2093
:10054000202D31206D61785F736B65775F66616325
:10055000746F723A2020310A00454550524F4D20A9
:100560004F4B0A004F666673657473204170706C60
:10057000696564004572723A20546F6F206661723B
:100580002100546F6F206661722066726F6D207259
:1005900065666572656E636520706F696E740A00CA
:1005A0006469730043290A0061626C656420286DE8
:1005B000696E2074656D702000436F6C64206578EF
:1005C00074727564657320617265200020643A005E
:1005D00020693A0020703A00496E76616C696420A7
:1005E00065787472756465720A0020466C6F773A9C
:1005F000200046523A0020204D61783A2000202009
:100600004D696E3A2000536F667420656E64737492
:100610006F70733A20003F4A206F7574206F662018
:1006200072616E67652028302E303120746F203063
:100630002E33290A00205400205200416363656C68
:1006400065726174696F6E3A2050004D3134352007
:10065000533C696E6465783E206F7574206F662028
:1006600072616E67652028302D31290A002F2F20F6
:10067000004348414D4245525F54454D504552411B
:100680005455524500424142595354455050494EE9
:10069000470041524353004D4F54494F4E5F4D4F19
:1006A00044455300544845524D414C5F50524F54BD
:1006B000454354494F4E004C4F4E475F46494C45C9
:1006C0004E414D45004155544F5245504F52545F95
:1006D00053445F535441545553005344434152448F
:1006E0000050524F4D50545F535550504F5254008C
:1006F000454D455247454E43595F5041525345522F
:1007000000434153455F4C494748545F4252494773
:1007100048544E45535300544F47474C455F4C494E
:100720004748545300534F4654574152455F504F2A
:10073000574552004255494C445F50455243454E3F
:1007400054004C4556454C494E475F444154410086
:100750005A5F50524F42450052554E4F555400413A
:1007600055544F4C4556454C005052494E545F4AE3
:100770004F420050524F4752455353004155544F3A
:100780005245504F52545F54454D5000564F4C55B2
:100790004D45545249430042494E4152595F4649E2
:1007A0004C455F5452414E534645520053455249C1
:1007B000414C5F584F4E5F584F4646004649524D98
:1007C000574152455F4E414D453A4D61726C696EDD
:1007D00020322E302E372E3220284A616E203235BC
:1007E00020323032312031353A32333A3137292014
:1007F000534F555243455F434F44455F55524C3A22
:1008000068747470733A2F2F6769746875622E6309
:100810006F6D2F4D61726C696E4669726D77617292
:10082000652F4D61726C696E2050524F544F434F8B
:100830004C5F56455253494F4E3A312E30204D4170
:100840004348494E455F545950453A47542069330F
:100850002050726F20572045585452554445525FDE
:10086000434F554E543A3120555549443A636564D7
:1008700065326132662D343161322D343734382D92
:10088000396231322D633535633632663336376639
:10089000660A0047542069332050726F2057204F5A
:1008A00046462E0042656420436F6F6C696E672E6A
:1008B0002E2E004265642048656174696E672E2E95
:1008C0002E004D3131332053004D313132205368E9
:1008D0007574646F776E006F6666004445425547D5
:1008E0003A0020573A0045202553002569792025F4
:1008F0006964202569682025696D20256973005089
:1009000072696E742074696D653A20004E6F204DD7
:100910006F76652E00436C69636B20746F2052659F
:1009200073756D652E2E2E00536C6565702E2E2E00
:100930000047322F47332062616420706172616D1D
:1009400065746572730A00FFFFFF0000A0C000001D
:10095000000000000000EE04E904E204DB04CD0422
:100960004572726F722077726974696E6720746F56
:1009700020454550524F4D210A002121204B494C22
:100980004C2063617573656420627920746F6F20F9
:100990006D75636820696E6163746976652074693A
:1009A0006D65202D2063757272656E7420636F6DA6
:1009B0006D616E643A20004D343130004D3131327A
:1009C000004D3130380053544F505045442E2000D4
:1009D0005072696E7465722073746F7070656420F4
:1009E00064756520746F206572726F72732E204675
:1009F000697820746865206572726F7220616E6418
:100A000020757365204D39393920746F20726573F4
:100A1000746172742E202854656D706572617475EE
:100A200072652069732072657365742E2053657436
:100A300020697420616674657220726573746172D6
:100A400074696E67290A004E6F20436865636B7393
:100A5000756D2077697468206C696E65206E756DA0
:100A60006265722C204C617374204C696E653A206B
:100A700000636865636B73756D206D69736D617478
:100A800063682C204C617374204C696E653A2000B9
:100A90004C696E65204E756D626572206973206EBB
:100AA0006F74204C617374204C696E65204E756DB7
:100AB0006265722B312C204C617374204C696E6519
:100AC0003A20004D31313000627573793A207061FF
:100AD0007573656420666F7220696E7075740A00A4
:100AE000627573793A2070617573656420666F7200
:100AF00020757365720A00627573793A2070726F9F
:100B000063657373696E670A00506C656173652075
:100B10005265736574005052494E54455220484105
:100B20004C5445440025533A202553004B494C4C26
:100B300045442E20005072696E7465722068616CA5
:100B40007465642E206B696C6C28292063616C6C61
:100B50006564210A006563686F3A004572726F72BE
:100B60003A0020746F6F206C6F6E67206578747226
:100B70007573696F6E2070726576656E7465640A50
:100B80000020636F6C6420657874727573696F6E92
:100B90002070726576656E7465640A00DB0FC93F6C
:100BA00045BCDA3F8FB30240FCF0274056946140C9
:100BB000FE4B9B4084A5D840E0231841346A56413F
:100BC000E859974164DBD5416E271742B4B75542C7
:100BD000CE1A9742C8AED542B5885A43D40684BFD0
:100BE000A65FA7BF7443E0BF10B11AC01C2C58C049
:100BF000E8F697C0B849D6C04E4E17C124D355C1A8
:100C0000802497C1A0B5D5C1121A17C244AE55C2EF
:100C1000781797C26CACD5C267885AC341647661B5
:100C20006E6365642053657474696E677300436F07
:100C30006E66696775726174696F6E004E6578746F
:100C400020506F696E7400446F6E65004E65787455
:100C500000486F6D696E672058595A004C6F616487
:100C60002053657474696E677300526573746F7294
:100C7000652044656661756C74730053746F7265AA
:100C80002053657474696E6773005072656865619E
:100C900074202420436F6E660054756E6500496EA3
:100CA000666F2053637265656E004D6F74696F6E79
:100CB0000054656D706572617475726500504554BD
:100CC0004700504C4100486F74656E6420746F6F2C
:100CD00020636F6C64004261636B0050726F6365E8
:100CE00065640044697361626C652053746570705B
:100CF000657273004D3834004C6576656C20436F27
:100D0000726E65727300486F6D65205A0047323805
:100D10005A00486F6D652059004732385900486FB6
:100D20006D6520580047323858004175746F20486F
:100D30006F6D6500473238005072656865617420D8
:100D40002420456E6400507265686561742024201B
:100D500042656400436F6F6C646F776E005072651C
:100D600068656174202400C20CBD0C416476616E1C
:100D70006365204B0046616E205370656564004ECC
:100D80006F7A7A6C65004D61696E00466C6F770012
:100D9000503A0020202020202020004531006265AC
:100DA00064002C2073797374656D2073746F707098
:100DB000656421204865617465725F49443A20008A
:100DC00048656174696E67204661696C65640048B6
:100DD000656174696E67206661696C656400202DC9
:100DE00020496E76616C69642065787472756465FB
:100DF00072206E756D62657220210A00544845525A
:100E00004D414C2052554E4157415900546865722E
:100E10006D616C2052756E61776179004572723A2E
:100E2000204D415854454D50004D415854454D506A
:100E300020747269676765726564004572723A2052
:100E40004D494E54454D50004D494E54454D50204E
:100E500074726967676572656400202F00204240E4
:100E60003A0020403A0000002F4300003E430000BB
:100E70003E4353657474696E67732053746F726573
:100E8000640053657474696E67732053746F726580
:100E9000642028003F00496E697469616C697A6555
:100EA00020454550524F4D00454550524F4D20561C
:100EB000657273696F6E204572726F72004545509E
:100EC000524F4D20496E646578204572726F7200F2
:100ED000454550524F4D20435243204572726F7228
:100EE0000049676E6F7265006F70656E00545249FD
:100EF000474745524544007A5F6D696E00795F6DE2
:100F0000696E00785F6D696E005265706F7274690A
:100F10006E6720656E6473746F702073746174758E
:100F2000730A00486F6D652025732573257320466D
:100F30006972737400486F6D696E67204661696CF1
:100F40006564005761726E696E673A20486F6D691B
:100F50006E672042756D702044697669736F7220E8
:100F60003C20310A00000048420000484200008056
:100F7000400202040000A0400000A0400000004029
:100F80000000344300003E4300003E43416D617861
:100F9000204500416D6178205A00416D61782059EB
:100FA00000416D6178205800412D54726176656C66
:100FB00000412D5265747261637400416363656C16
:100FC00000452073746570732F6D6D005A20537443
:100FD0006570732F6D6D00592053746570732F6D9C
:100FE0006D00582053746570732F6D6D0043616EF2
:100FF00063656C00496E6974004D3432380046698F
:101000006C616D656E74004A756E6374696F6E20F5
:1010100044657600416363656C65726174696F6EE7
:101020000056656C6F636974790053657420486F6E
:101030006D65204F66667365747300204D393220EC
:10104000580020496E76616C696420657874727509
:1010500064657220004361703A00526573656E6486
:101060003A200023646566696E6520444546415513
:101070004C545F004B6420004B6920004B702000F3
:10108000504944204175746F74756E652066696EB1
:101090006973686564212050757420746865206CDC
:1010A000617374204B702C204B6920616E64204B5F
:1010B0006420636F6E7374616E74732066726F6DFB
:1010C0002062656C6F7720696E746F20436F6E6667
:1010D000696775726174696F6E2E680A00504944C1
:1010E000204175746F74756E65206661696C656406
:1010F000212074696D656F75740A000A20436C6164
:101100007373696320504944200A00204B643A20DD
:1011100000204B693A2000204B703A200020547583
:101120003A2000204B753A2000206D61783A20006B
:10113000206D696E3A200020643A200020626961C7
:10114000733A2000504944204175746F74756E6580
:101150002073746172740A00504944204175746FA1
:1011600074756E65206661696C6564212054656DD7
:10117000706572617475726520746F6F206869673D
:10118000680A00504944204175746F74756E65009B
:10119000504944204175746F74756E6520666169AD
:1011A0006C656421204261642065787472756465A1
:1011B00072206E756D6265720A00A1000000690000
:1011C000A20000006300B00000000900C1000000A0
:1011D0004100C20000004100C30000004100C40003
:1011E00000004100C50000004100C600000041456C
:1011F000C70000004300C80000004500C90000000F
:101200004500CD0000004900D10000004E00D5008F
:1012100000004F00D60000004F00D700000078000B
:10122000DC0000005500DD0000005900E000000077
:101230006100E10000006100E20000006100E300E5
:1012400000006100E40000006100E50000006100B2
:10125000E60000006165E70000006300E8000000B0
:101260006500E90000006500EA0000006500EB0091
:1012700000006500EC0000006900ED00000069005E
:10128000EE0000006900EF0000006900F1000000BE
:101290006E00F20000006F00F30000006F00F40029
:1012A00000006F00F50000006F00F60000006F0006
:1012B000F80000006F00F90000007500FA0000005F
:1012C0007500FB0000007500FC0000007500FD00CB
:1012D00000007900FF0000007900040100004100D7
:1012E0000501000061000601000043000701000045
:1012F00063000C01000043000D01000063000E01BB
:10130000000044000F0100006400110100006400AF
:101310001901000065001A01000045001B010000D2
:1013200065001F0100006700300100004900310125
:1013300000006900410100004C00420100006C0007
:10134000430100004E00440100006E00480100000F
:101350006E005801000052005901000072005A014D
:10136000000053005B01000073005F010000730088
:10137000600100005300610100007300650100007E
:1013800074006F01000075007C0100007A007D018F
:1013900000005A007E0100007A0092010000660001
:1013A000E30200007800222000002E001E21000031
:1013B000507822210000544D902100003C2D9221B4
:1013C00000002D3EB02100000300BB2100000400FE
:1013D0003C2200007E00482200007E3D602200008A
:1013E000213D612200003D00642200003C3D652259
:1013F00000003E3DF12300000700A03000003D004A
:1014000021F301000200C2F401000500A200000067
:10141000EC00B0000000DF00E4000000E100F60096
:101420000000EF00F7000000FD00FC000000F500E8
:10143000E3020000EB0087030000A5008F0300001B
:10144000F40098030000F2009E030000E300A303F1
:101450000000F600A9030000F400AC030000E00067
:10146000AD030000E300B1030000E000B2030000A0
:10147000E200B5030000E300B8030000F200BC0383
:101480000000E400BE030000E300C0030000F7001A
:10149000C1030000E600C3030000E5009021000046
:1014A0007F00922100007E001A220000E8001E2228
:1014B0000000F30088250000FF0002300000A100BA
:1014C0000C300000A2000D300000A3009B30000093
:1014D000DE009C300000DF00A03000003D00A130A5
:1014E0000000A700A2300000B100A3300000A80057
:1014F000A4300000B200A5300000A900A630000012
:10150000B300A7300000AA00A8300000B400A93042
:101510000000AB00AA300000B500AB300000B60000
:10152000AC300000B6DEAD300000B700AE300000D9
:10153000B7DEAF300000B800B0300000B8DEB13028
:101540000000B900B2300000B9DEB3300000BA00CC
:10155000B4300000BADEB5300000BB00B630000089
:10156000BBDEB7300000BC00B8300000BCDEB930D4
:101570000000BD00BA300000BDDEBB300000BE0080
:10158000BC300000BEDEBD300000BF00BE30000039
:10159000BFDEBF300000C000C0300000C0DEC13080
:1015A0000000C100C2300000C1DEC3300000AF0047
:1015B000C4300000C200C5300000C2DEC6300000EA
:1015C000C300C7300000C3DEC8300000C400C9300B
:1015D0000000C4DECA300000C500CB300000C600E9
:1015E000CC300000C700CD300000C800CE30000075
:1015F000C900CF300000CA00D0300000CADED130B0
:101600000000CADFD2300000CB00D3300000CBDEB8
:10161000D4300000CBDFD5300000CC00D630000045
:10162000CCDED7300000CCDFD8300000CD00D93080
:101630000000CDDEDA300000CDDFDB300000CE0070
:10164000DC300000CEDEDD300000CEDFDE3000001A
:10165000CF00DF300000D000E0300000D100E130EA
:101660000000D200E2300000D300E3300000AC0004
:10167000E4300000D400E5300000AD00E6300000AA
:10168000D500E7300000AE00E8300000D600E930B9
:101690000000D700EA300000D800EB300000D9008D
:1016A000EC300000DA00ED300000DB00EF3000002D
:1016B000DC00F2300000A600F3300000DD00F43062
:1016C0000000B3DEF7300000DCDEFA300000A6DEFA
:1016D000FB300000A500FC300000B000FD30000031
:1016E000A400074E0000FB0086510000FC0043539D
:1016F0000000FA0064FF0000A40065FF0000A500E0
:1017000066FF0000A60067FF0000A70068FF00005A
:10171000A80069FF0000A9006AFF0000AA006BFF93
:101720000000AB006CFF0000AC006DFF0000AD00DE
:101730006EFF0000AE006FFF0000AF0070FF000002
:10174000B00071FF0000B10072FF0000B20073FF33
:101750000000B30074FF0000B40075FF0000B50086
:1017600076FF0000B60077FF0000B70078FF0000AA
:10177000B80079FF0000B9007AFF0000BA007BFFD3
:101780000000BB007CFF0000BC007DFF0000BD002E
:101790007EFF0000BE007FFF0000BF0080FF000052
:1017A000C00081FF0000C10082FF0000C20083FF73
:1017B0000000C30084FF0000C40085FF0000C500D6
:1017C00086FF0000C60087FF0000C70088FF0000FA
:1017D000C80089FF0000C9008AFF0000CA008BFF13
:1017E0000000CB008CFF0000CC008DFF0000CD007E
:1017F0008EFF0000CE008FFF0000CF0090FF0000A2
:10180000D00091FF0000D10092FF0000D20093FFB2
:101810000000D30094FF0000D40095FF0000D50025
:1018200096FF0000D60097FF0000D70098FF000049
:10183000D80099FF0000D9009AFF0000DA009BFF52
:101840000000DB009CFF0000DC009DFF0000DD00CD
:101850009EFF0000DE009FFF0000DF00E5FF0000AC
:101860005C002062797465733B2063726320004ED4
:101870006F20454550524F4D2E0A00454550524F5E
:101880004D206461746173697A65206572726F724C
:101890002E0A002073746F72656420736574746916
:1018A0006E677320726574726965766564202800BE
:1018B000202863616C63756C6174656429210A007A
:1018C00020213D2000454550524F4D20435243209A
:1018D0006D69736D61746368202D202873746F7255
:1018E00065642920002053697A653A2000496E64B6
:1018F00065783A200044494749504F5453204C6F73
:10190000616465640A0044494749504F5453204C70
:101910006F6164696E670A00204D61726C696E3D8B
:10192000563832290A00454550524F4D207665728F
:1019300073696F6E206D69736D61746368202845EB
:101940004550524F4D3D0048617264636F64656459
:101950002044656661756C742053657474696E67A4
:1019600073204C6F616465640A003B200020204DA9
:10197000393030204B004C696E65617220416476CD
:10198000616E63653A0020204D3835322053005394
:101990006B657720466163746F723A2000204900BE
:1019A00020204D333031205000504944207365745D
:1019B00074696E67733A0020460020480020204D6D
:1019C0003134352053004D6174657269616C206853
:1019D000656174757020706172616D657465727394
:1019E0003A0020204D323036205800486F6D652077
:1019F0006F66667365743A00204A0020204D3230CD
:101A000035204200416476616E6365643A20423C51
:101A10006D696E5F7365676D656E745F74696D6522
:101A20005F75733E20533C6D696E5F6665656472D9
:101A30006174653E20543C6D696E5F7472617665B9
:101A40006C5F66656564726174653E204A3C6A75C8
:101A50006E635F6465763E0020204D323034205046
:101A600000416363656C65726174696F6E202875EF
:101A70006E6974732F7332293A20503C7072696E0C
:101A8000745F616363656C3E20523C726574726181
:101A900063745F616363656C3E20543C747261766D
:101AA000656C5F616363656C3E0020204D323031B0
:101AB0002058004D6178696D756D20416363656CD8
:101AC00065726174696F6E2028756E6974732F7307
:101AD00032293A0020204D3230332058004D6178B1
:101AE000696D756D20666565647261746573202823
:101AF000756E6974732F73293A005374657073207F
:101B000070657220756E69743A0020440020204D83
:101B10003230302053002044697361626C65640A7E
:101B20000046696C616D656E742073657474696ECE
:101B300067733A0020204D3134392043203B205533
:101B40006E69747320696E2043656C736975730ADE
:101B50000020286D6D2900202047323120202020D0
:101B60003B20556E69747320696E206D6D00000016
:101B7000C8430000C8430000004000003442000099
:101B8000A3420000A3425258C8430000D842881321
:101B9000000088130000320000008813000024F4C5
:101BA000D43050C38E20C2A24017828B7011127A9B
:101BB000910D816CD90AA861E108C7586607615187
:101BC00043061E4B5D05C145A7041A411104093D9A
:101BD0009803713931034036DB0265339102D4300A
:101BE0005402802E1D02632CEE01752AC501B02817
:101BF000A001102781018F2564012B244B01E022D5
:101C00003401AC211F018D200D01801FFC00841EBA
:101C1000ED00971DDF00B81CD200E61BC600201B9C
:101C2000BC00641AB200B219A8000A19A0006A1810
:101C30009900D117910040178B00B516840031161A
:101C40007E00B31579003A157300C7146F0058145D
:101C50006A00EE1366008813630025135E00C71246
:101C60005B006C12570015125400C1115100701125
:101C70004F0021114B00D61049008D10470046102F
:101C8000440002104200C00F4000800F3E00420F8F
:101C90003C00060F3B00CB0E3800930E37005C0E65
:101CA0003500270E3400F30D3200C10D3100900DC8
:101CB0003000600D2E00320D2D00050D2C00D90CCA
:101CC0002B00AE0C2900850C29005C0C2700350C7C
:101CD00027000E0C2600E80B2400C40B2400A00BE8
:101CE00023007D0B23005A0B2100390B2100180B18
:101CF0002000F80A1F00D90A1E00BB0A1E009D0A18
:101D00001D00800A1D00630A1C00470A1B002C0AE4
:101D10001B00110A1A00F7091A00DD091900C4098D
:101D20001900AB091900920917007B091800630913
:101D300017004C09160036091600200916000A097A
:101D40001500F5081500E0081400CC081400B808C8
:101D50001400A4081400900813007D0812006B08FA
:101D60001300580812004608120034081100230816
:101D700011001208110001081100F0071000E0071F
:101D80001000D0071000C0071000B0070F00A10717
:101D9000100091070E0083070F0074070F006507FE
:101DA0000E0057070E0049070E003B070D002E07D7
:101DB0000E0020070D0013070D0006070D00F906A1
:101DC0000C00ED060D00E0060C00D4060C00C80661
:101DD0000C00BC060C00B0060C00A4060B00990613
:101DE0000C008D060B0082060B0077060B006C06BC
:101DF0000B0061060A0057060B004C060A0042065B
:101E00000A0038060A002E060A0024060A001A06EE
:101E10000A001006090007060A00FD050900F4057E
:101E20000900EB050900E2050900D9050900D00504
:101E30000900C7050900BE050900B5050800AD0584
:101E40000800A50509009C050800940508008C05FC
:101E50000800840508007C050800740508006C056E
:101E60000700650508005D050700560508004E05DA
:101E70000700470507004005080038050700310541
:101E800007002A050700230507001C0506001605A4
:101E900007000F0507000805060002050700FB0400
:101EA0000600F5040700EE040600E8040600E2045C
:101EB0000700DB040600D5040600CF040600C904B1
:101EC0000600C3040600BD040600B7040600B10402
:101ED0000500AC040600A6040600A00405009B044F
:101EE000060095040500900406008A040500850498
:101EF0000500800406007A040500750405007004DE
:101F000005006B04050066040500610405005C041F
:101F1000050057040500520405004D04050048045F
:101F20000500430405003E0404003A04050035049E
:101F30000500300404002C040500270404002304D9
:101F400005001E0404001A04040016040500110410
:101F500004000D0404000904050004040400000446
:101F60000400FC030400F8030400F4030400F0037D
:101F70000400EC030400E8030400E4030400E003AD
:101F80000400DC030400D8030400D4030400D003DD
:101F90000400CC030400C8030300C503030024F4B9
:101FA00004D9201BC40C5C0E9804C4095F026507A9
:101FB0007101F405F900FB04B30048048700C10374
:101FC00069005803550003034500BE023A0084022D
:101FD000310053022A002902250004022000E401F6
:101FE0001C00C8011900AF011700980114008401FA
:101FF0001300710110006101100051010E00430136
:102000000D0036010B002B010B0020010B00150108
:1020100009000C01090003010800FB000800F3009F
:102020000800EB000700E4000600DE000600D80010
:102030000600D2000600CC000500C7000500C20063
:102040000500BD000400B9000400B5000400B100A3
:102050000400AD000400A9000400A5000300A200D4
:1020600003009F0004009B000300980003009500FC
:10207000020093000300900003008D0002008B001B
:102080000300880002008600020084000300810033
:1020900002007F0002007D0002007B000200790048
:1020A0000200770001007600020074000200720056
:1020B0000100710002006F0002006D0001006C0061
:1020C00002006A000100690002006700010066006A
:1020D000010065000100640002006200010061006F
:1020E0000100600001005F0002005D0001005C0073
:1020F00001005B0001005A00010059000100580076
:102100000100570001005600010055000100540075
:102110000100530000005300010052000100510073
:102120000100500001004F0001004E0000004E0071
:1021300001004D0001004C0001004B0000004B006D
:1021400001004A0001004900010048000000480069
:102150000100470001004600000046000100450064
:10216000000045000100440001004300000043005E
:102170000100420000004200010041000000410057
:102180000100400001003F0000003F0001003E0050
:1021900000003E0001003D0000003D0001003C0049
:1021A00000003C0000003C0001003B0000003B0040
:1021B00001003A0000003A00010039000000390037
:1021C000010038000000380000003800010037002E
:1021D0000000370001003600000036000000360025
:1021E000010035000000350000003500010034001A
:1021F0000000340000003400010033000000330010
:102200000000330001003200000032000000320004
:1022100001003100000031000000310001003000F9
:10222000000030000000300001002F0000002F00EF
:1022300000002F0000002F0001002E0000002E00E3
:1022400000002E0001002D0000002D0000002D00D8
:1022500000002D0001002C0000002C0000002C00CC
:1022600000002C0001002B0000002B0000002B00C0
:1022700000002B0001002A0000002A0000002A00B4
:1022800000002A00010029000000290000002900A8
:10229000000029000000290001002800000028009B
:1022A000000028000000280000002800010027008E
:1022B0000000270000002700000027000000270082
:1022C0000100260000002600000026000000260075
:1022D0000000260001002500000025000000250068
:1022E000000025000000250000002500010024005A
:1022F000000024000000240000002400000024004E
:102300000100230000002300000023000000230040
:102310000000230000002300000023000100220031
:102320000000220000002200000022000000220025
:102330000000220001002100000021000000210017
:102340000000210000002100000021000000210009
:1023500001002000000020000000200000002000FC
:1023600000002000000020000000200000002000ED
:1023700001001F0000001F0000001F0000001F00E0
:1023800000001F0000001F0000001F0001001E00D1
:1023900000001E0000001E0000001E000000C231F0
:1023A00000001C260000F4190000D80F0000EB0804
:1023B0000000C0040000750200004001000020433E
:1023C0006F756E7420583A0046696C2E204469611E
:1023D0002E004520696E206D6DC2B300200220469C
:1023E000616374002002204D6178002002204D6955
:1023F0006E004F6666004F6E004175746F74656DB8
:1024000070005654726176204D696E00566D696E8B
:1024100000566D6178204500566D6178205A00564F
:102420006D6178205900566D6178205800040E1FA8
:10243000041C000000000E1315110E00001C1018E3
:102440001705060500040A0A0A0A11110E0C1212D9
:102450000C00000000001F1511151F0000000000F7
:1024600000010204040000001C1C0C04040402010E
:10247000000000000004081000000000007C4D6116
:10248000726C696E7C002D2D2D2D2D2D00456E63F7
:102490006C6F737572650068747470733A2F2F6D6A
:1024A00061726C696E66772E6F72670020322E3013
:1024B0002E372E32002020506C616E6E6572427590
:1024C0006666657242797465733A200020467265CB
:1024D00065204D656D6F72793A2000436F6D7069AC
:1024E0006C65643A204A616E2032352032303231D8
:1024F0000A00204C61737420557064617465643AFD
:1025000020323032302D31302D3135207C20417554
:1025100074686F723A206A6F6E7361670A00322EB8
:10252000302E372E320A004D61726C696E002053D6
:102530006F6674776172652052657365740A002056
:102540005761746368646F672052657365740A002D
:102550002042726F776E206F7574205265736574B8
:102560000A002045787465726E616C20526573654F
:10257000740A00506F77657255700A00456E647377
:10258000746F707300255320256320256320256315
:1025900020256300656E6473746F707320686974BE
:1025A0003A200070012C0190012701B0012201C0E6
:1025B000011D01F00118011002130130020E01602B
:1025C00002090190020401C002FF000003FA00406A
:1025D00003F5008003F000D003EB002004E6007058
:1025E00004E100E004DC004005D700C005D2004053
:1025F00006CD00D006C8008007C3003008BE00F03A
:1026000008B900C009B400B00AAF00B00BAA00D0EE
:102610000CA500000EA000500F9B00C010960050AB
:1026200012910000148C00C0158700B0178200B012
:10263000197D00D01B7800001E730040206E0090B2
:10264000226900F024640040275F0090295A00E0CE
:102650002B5500102E500020304B0010324600E069
:1026600033410090353C001037370070383200A0FD
:10267000392D00B03A2800A03B2300603C1E00101A
:102680003D1900903D1400103E0F00703E0A00C03E
:102690003E0500003F0000403FFBFF803FF6FFC0CB
:1026A0003FF1FF00000A0B02090C0D0E080703049E
:1026B0000100000000000000000000000000000019
:1026C00000000000000000000000000000000012F8
:1026D00011100000000000000000000000000000D9
:1026E0000000000000000000004D6F76652025739B
:1026F0006D6D004D6F766520302E316D6D004D6F24
:10270000766520316D6D004D6F76652031306D6DD1
:10271000004D6F7665204178697300457874727555
:10272000646572004D6F7665205A004D6F766520A6
:1027300059004D6F76652058002568753A2530326E
:1027400068750025303268753A25303268750000AA
:10275000002200250028002B002E0031003400024A
:10276000010000050108010B0100002100240027E1
:10277000002A002D00300033000101000004010791
:10278000010A0105050505070508080808020202F7
:10279000020A0A08080404040401010101010101FC
:1027A000010303030303030303040707070C0C0CD3
:1027B0000C0C0C0C0C0202020206060606060606AB
:1027C000060B0B0B0B0B0B0B0B0102102020080848
:1027D0001020401020408002010201080402010183
:1027E000020408102040808040201008040201806C
:1027F00004020180402010080402010804020101C3
:10280000020408102040800102040810204080507B
:1028100072696E742050617573656400220A0055F8
:102820006E6B6E6F776E20636F6D6D616E643A20B4
:10283000220047542069332050726F205720526580
:102840006164792E005072696E74696E672E2E2E47
:102850000020453A00205A3A0020593A0000EDBEC7
:1028600011241FBECFEFD1E2DEBFCDBF00E00CBF11
:1028700013E0A0E0B2E0E8E9FDE901E00BBF02C02F
:1028800007900D92A630B107D9F72EE0A6E0B3E08D
:1028900001C01D92A537B207E1F714E1C0E3D4E10E
:1028A00000E006C021970109802FFE010E9456CB4F
:1028B000CF32D10780E00807A9F70E94BEB70C9479
:1028C000CACE0C9400002F923F924F925F926F926B
:1028D0007F928F929F92AF92BF92CF92DF92EF92B0
:1028E000FF920F931F93CF93DF93CDB7DEB7C05501
:1028F000D1090FB6F894DEBF0FBECDBF0091A6037D
:102900002F960FAF2F9721E02093A6038091A50368
:102910008D3409F46DC2843511F40C9496218734FA
:1029200011F00C94BB212090A3033090A40314E079
:102930002116310409F495C154F437FC55C2809135
:10294000A10332E0231631040CF0FFC02FC04AE58A
:102950002416310409F4D3C164F485E12816310446
:1029600011F40C94BD219CE12916310409F4B7C17E
:102970003BC2ABE52A16310409F4C5C1BCE52B16F0
:10298000310409F031C25AE6252E52E0352E65E5B4
:10299000E62E63E0F62E0AE512E01B8F0A8F73E63F
:1029A000C72E7EE0D72E00E010E0EDC1813011F09F
:1029B0000C94BD210E94B28481E993E00E944D7481
:1029C0008091B70983FD85C020916602309167022E
:1029D000409168025091690260919D0370919E033D
:1029E00080919F039091A0030E9463C4882309F4FF
:1029F00070C08091500481111BC06091B80D70911E
:102A0000B90D8091BA0D9091BB0D0E94E5CC20913B
:102A10002D0230912E02215031096217730744F4C0
:102A20000E94DA2E81E89BE00E94B42E11E001C0E2
:102A300010E0209166023091670240916802509147
:102A4000690260919D0370919E0380919F03909114
:102A5000A0030E9478CB6B017C0120E030E0A9014B
:102A60000E94D9CD87FF04C0F7FAF094F7F8F094EC
:102A70002091290230912A0240912B0250912C0280
:102A8000C701B6010E94C9C420E030E048E453E425
:102A90000E94D9CD18163CF40E94DA2E82E69BE003
:102AA0000E94B42E02C01123A1F080919D03909149
:102AB0009E03A0919F03B091A00380936602909320
:102AC0006702A0936802B09369028DE993E00E94C7
:102AD000BB712AE037ED43E25CE36091250270911F
:102AE000260280912702909128020E94C9C46B019E
:102AF0007C016091230270912402072E000C880B48
:102B0000990B0E946AC49B01AC01C701B6010E94E7
:102B1000C9C469837A838B839C838E010F5F1F4FA7
:102B20002DE933E049E953E065E973E081E993E099
:102B30000E9415B380E1E1E9F3E0AAE5B2E001907B
:102B40000D928A95E1F70C94BD21813011F00C941F
:102B5000BD210E94B28482E50E94D82D882309F409
:102B60004EC00E94532D6B017C0120E030E0A90192
:102B70000E9463C4882311F40C94922200915A029B
:102B800010915B0220915C0230915D020A8F1B8FD5
:102B90002C8F3D8F20915E0230915F024091600248
:102BA000509161022E8F3F8F48A359A380909103CB
:102BB00090909203A0909303B0909403409095035B
:102BC000509096036090970370909803A50194012C
:102BD0006A8D7B8D8C8D9D8D0E9463C481110C94B8
:102BE000D321A30192016E8D7F8D88A199A10E94AE
:102BF00063C4882311F40C9492220C94D32189E4A9
:102C00000E94D82D882329F00E94532D6B017C014E
:102C100003C0C12CD12C76018AE40E94D82D8823D0
:102C200011F40C9499220E94532D6AA37BA38CA3C8
:102C30009DA320E030E0A901C701B6010E9463C452
:102C400081110C94A62220E030E0A9016AA17BA1A9
:102C50008CA19DA10E9463C481110C94A6220C94A6
:102C6000922280E50E94D82D882329F00E94A68513
:102C70006B017C0103C0C12CD12C760183E50E943D
:102C8000D82D882361F00E94532D20E030E04AE7E0
:102C900054E40E94C9C40E94ECCC6B017C010E94E8
:102CA000126F80916403811105C060E088E299E0B1
:102CB0000E94CA790E94A8ABC60ED71EE81EF91E54
:102CC0000E94A8ABDC01CB018C199D09AE09BF099C
:102CD000B7FD02C00C94BD210E94E430F1CF809179
:102CE00063038770873011F00C94482660E08FE40E
:102CF0000E94038681110C94BD210C9448261092E9
:102D0000A2030C94BD218FE08093A2030C94BD21FB
:102D10000E94532D2B013C01133049F0F601208114
:102D20003181428153810E9478CB2B013C01AA8DD5
:102D3000BB8D2D913D914D915C91C301B2010E94DB
:102D400078CB4B015C012DEB37E346E855EB0E9455
:102D5000D9CD87FD20C02DEB37E346E855E3C5010B
:102D6000B4010E9463C41816B4F01F5FB4E0EB0E08
:102D7000F11CEA8DFB8D3496FB8FEA8FF4E0CF0EC9
:102D8000D11C143039F1D1018D911D010E94D82D33
:102D9000882359F3BDCF133051F44092660250920C
:102DA0006702609268027092690201E0DECFA501BD
:102DB0009401F70160817181828193810E9479CBB6
:102DC000D7016D937D938D939C931397812F0E94D0
:102DD0001A74CBCF002321F086E692E00E94BB71EB
:102DE0000E94BD750C94BD210E942FB50C94BD218D
:102DF0008091A3039091A4038737910509F4F4C54A
:102E00000CF00AC18C35910509F412C50CF04FC0C5
:102E10008B34910509F4F5C2BCF48131910509F4B4
:102E200001C22CF4029708F4A0C10C9493218F31B5
:102E3000910509F40BC28934910509F4B2C2429795
:102E400011F00C9493219BC48235910509F489C437
:102E500014F58D34910509F4EAC20CF4D5C281351C
:102E6000910511F00C9493210E94D8610E94B576CF
:102E70000E94226F0E94648568EE73E080E090E01B
:102E80000E94E52D0E946D2E60E083E998E00E948B
:102E9000CA790C94BD218435910509F470C40CF4F1
:102EA00067C48535910509F4A0C40C9493218E362E
:102EB000910509F461C3B4F48A36910509F419C384
:102EC00054F48836910509F4B5C28936910509F4A0
:102ED000FAC20C9493218C36910509F4A7C30CF423
:102EE00043C3CBC28237910509F42CC53CF480372B
:102EF000910509F4A0C30CF450C3A7C3853791050D
:102F000009F427C50CF036C58337910511F00C94F0
:102F100093218CEB97E00E94B42E60E08CEA97E05E
:102F20000E94988460E087E997E00E94988461E0BD
:102F300081EA9EE00E94988461E08CE897E00E941C
:102F4000988461E08CE797E00E94988460E083E7D2
:102F500097E00E94988461E089E697E00E94988457
:102F600060E08FE597E00E94988460E088E597E054
:102F70000E94988460E080E597E00E94988460E079
:102F800082E497E00E94988461E084E397E00E94E5
:102F9000988460E085E297E00E94988460E087E191
:102FA00097E00E94988460E081E097E00E94988416
:102FB00060E080EF96E00E94988460E081EE96E009
:102FC0000E94988460E08AED96E00E94988460E018
:102FD00085EC96E00E94988460E087EB96E00E9482
:102FE000988461E084EA96E00E94988460E087E932
:102FF00096E00E94988461E082E996E00E949884BD
:1030000060E085E896E00E94988460E081E796E0C1
:103010000E9498840C94BD218D3D910509F440C710
:103020000CF04DC0883C910509F461C524F58C383D
:10303000910509F431C38CF48837910509F4D7C49C
:103040008937910511F00C9493211092620310922C
:1030500061030E945B760C94BD218B39910509F4C4
:103060005AC38E3B910509F436C38139910511F09D
:103070000C949321C4C48D3C910509F4F8C564F403
:103080008B3C910509F4A0C50CF0BDC5893C9105A8
:1030900009F474C50C949321833D910509F413C67A
:1030A0008C3D910509F4D5C68E3C910511F00C9428
:1030B00093215DE0E52E53E0F52E10E0F2C5843F4C
:1030C00001E0900711F40C94EF2044F58F3221E0D9
:1030D000920711F40C9488206CF48D3241E094072F
:1030E00009F453C70CF0D0C78C32914009F42EC7B5
:1030F0000C9493218A39B1E09B0709F4A3C28C3A5E
:10310000E1E09E0711F40C948B208039914011F07E
:103110000C9493210E94126F0C94BD21883F01E012
:10312000900711F40C94FE206CF4863F21E0920786
:1031300011F40C94F22014F00C94F5200E94599391
:103140000C94BD21843843E0940711F40C941C21A5
:10315000873E53E0950711F40C9485218435934004
:1031600011F00C9493210C940E2180E50E94D82D2F
:10317000882329F00E94A6856B017C0103C0C12C25
:10318000D12C760183E50E94D82D882361F00E941E
:10319000532D20E030E04AE754E40E94C9C40E9465
:1031A000ECCC6B017C010E94126F809153039091D3
:1031B0005403009721F061E00E941A7A05C060E094
:1031C00085E199E00E94CA791091A60383E080937B
:1031D000A60381E080935203C114D104E104F104F9
:1031E00031F00E94A8ABC60ED71EE81EF91E8091D2
:1031F0005203882311F40C949727C114D104E104DD
:10320000F10411F40C9493270E94A8ABDC01CB01CC
:103210008C199D09AE09BF09B7FF02C00C94932712
:103220000C94972780914E0384FF02C00C949E2734
:103230008091500387FF02C00C949E278091510318
:10324000837011F00C949E270C94B5270E9466762B
:103250007B018C0120E831E541E050E00E94B9CAD1
:10326000C9016DE671E00E940FCB4B015C01C80102
:10327000B70120E13EE040E050E00E94B9CACA0137
:10328000B90128E130E040E050E00E94B9CA762E52
:10329000672EC62ED72E4CE3242E312C412C512CD8
:1032A000C801B701A20191010E94B9CAF62EE72E0A
:1032B000CA01B901A20191010E94B9CACB018E01D4
:1032C0000F5F1F4F8114910499F0EF92FF927F934B
:1032D0006F936F927F92BF92AF929F928F928BEE7D
:1032E00098E09F938F931F930F930E94FBC313C08B
:1032F000A114B104B1F0EF92FF927F936F936F929C
:103300007F92BF92AF928FEE98E09F938F931F931F
:103310000F930E94FBC30FB6F894DEBF0FBECDBF64
:1033200030C0CD2879F0EF92FF927F936F936F9228
:103330007F9283EF98E09F938F931F930F930E9448
:10334000FBC3E9CF892B69F0EF92FF927F936F93D4
:1033500087EF98E09F938F931F930F930E94FBC377
:10336000DACFEF92FF928BEF98E09F938F931F93AA
:103370000F930E94FBC30F900F900F900F900F9030
:103380000F9060E0C8010E941A7A0E94DA2EB801FC
:103390008FEF98E00E94C32E8AE00E94AD2E0C941D
:1033A000BD2180E50E948A2D8823A1F00E94532D23
:1033B00020E030E048EC52E40E94C9C40E94ECCC0A
:1033C000603197E2790710F060E177E2709349038A
:1033D0006093480382E50E948A2D882309F4CDC7B3
:1033E0000E94A6859B01AC01ACE3B0E00E94DBCA61
:1033F00060934A0370934B0380934C0390934D0367
:10340000BCC70E94092EB9C78091620E813009F0B5
:10341000B4C782E08093620E0E94A8AB609344031D
:10342000709345038093460390934703A6C70E9479
:10343000B576A3C78091B70983FD9FC70E94CA854F
:1034400087FD9BC789E40E94D82D882311F40C9432
:10345000BF270E94B68590E01816190614F481E083
:1034600090E026E0289FF001299FF00D1124E85CF0
:10347000FC4F808191810C94C9278091B70983FD0D
:103480007CC70E94CA858EAF87FD77C789E40E94FA
:10349000D82D182F882311F40C94D2270E94B685BA
:1034A00090E01816190614F481E090E026E0289FB9
:1034B000F001299FF00D1124E85CFC4F808191817F
:1034C0001A8E0C94E2270E94CA85182F87FD0AC025
:1034D00083EF94E00E94B42E812F0E942E618AE037
:1034E0000E94AD2E2F961FAD2F971093A6030C941C
:1034F000292D80E50E943DB581113FC781E40E94DE
:103500008A2D882329F060913F04062F10E002C025
:103510000FEF10E089E40E94D82D882399F00E94D3
:10352000B68590E01816190614F481E090E026E0C4
:10353000289FF001299FF00D1124E85CFC4F0481C5
:10354000158108C083E50E94D82D882319F00E94B8
:10355000432D8B01B8010F3F110519F010F06FEFEB
:1035600070E060933F0409C780E50E943DB581117A
:1035700004C710923F0401C78EE40E94D82D88230F
:1035800009F4FBC60E94432D609333037093340308
:103590008093350390933603F0C683E50E948A2D0D
:1035A000882329F083E50E943DB58093B7090E94E6
:1035B000DA2E8BED98E00E94B42E8091B709882313
:1035C00069F186E5E82E89E0F82E00E010E020E0C1
:1035D0008091B70990E0A0E0B0E0002E04C0B6955D
:1035E000A795979587950A94D2F780FF0EC0DD24A2
:1035F000D394D20E222319F08CE20E94AD2EF70153
:10360000859194910E94B42E2D2D0F5F1F4F32E0B3
:10361000E30EF11C05301105D9F604C087ED98E0E2
:103620000E94B42E8AE00E94AD2EA7C610925203CB
:1036300010920702A2C641E060E070E089EC98E0D9
:103640000E94DE2E0E94492E98C683E50E94D82D46
:10365000882371F00E94B685282F30E02D33310584
:103660001CF48093060289C68CE38093060285C60B
:103670000E94DA2EC0900602D12CE12CF12C82ECB3
:1036800098E00E94B42E4AE0C701B6010E94942F30
:103690008AE00E94AD2E71C68091B70983FD6DC688
:1036A00089E40E94D82D882311F40C94A4290E9447
:1036B000B68590E01816190614F481E090E026E033
:1036C000289FF001299FF00D1124E85CFC4F6281D6
:1036D00073810C94AE298091B70983FD4EC689E4AD
:1036E0000E94D82D882311F40C94C2290E94B6851B
:1036F00090E01816190614F481E090E026E0289F67
:10370000F001299FF00D1124E85CFC4F6281738168
:103710001A8E0C94D32983E50E94D82D882309F4AE
:103720002CC60E94B685182F90E0CD970CF01CE3B4
:10373000109327030E94A8AB6B017C01212F30E07E
:10374000A8EEB3E00E94E6CAC60ED71EE81EF91E18
:10375000C0922303D0922403E0922503F092260323
:103760000CC68091A2038F7D80618093A20305C661
:103770008091A2038F7E80628093A203FEC583E5C1
:103780000E94D82D8823E9F00E94A8AB60938D0396
:1037900070938E0380938F03909390030E94532D18
:1037A00020E030E04AE754E40E94C9C40E94ECCC17
:1037B00060930202709303028093040290930502C7
:1037C000DCC580914E0384FF02C00C94742B809161
:1037D000500387FF02C00C94742B809151038370B7
:1037E00011F00C94742B0C94A22B83E50E948A2D6B
:1037F000882309F4C2C50E94A8AB60938D0370931F
:103800008E0380938F03909390030E94532D20E0AA
:1038100030E04AE754E40E94C9C40E94ECCC6093B3
:103820001E0370931F038093200390932103A5C56B
:103830000E94CA8587FDA1C590914E0394FD04C0E6
:103840009091500397FF0AC0FAE6CF2EF2E0DF2EE8
:10385000A8EBEA2EA9E0FA2E10E009C090915103DE
:10386000937091F7682F81E00E94678586C5D60125
:103870008D916D010E94D82D882309F459C0133011
:1038800009F04FC00E94532D4B015C0120E030E055
:1038900040EA51E40E9463C487FF3AC0A501940145
:1038A0006091D8097091D9098091DA099091DB096A
:1038B0000E9473CC2B013C019B01AC016091E80993
:1038C0007091E9098091EA099091EB090E94C9C4BD
:1038D0006093E8097093E9098093EA099093EB09F2
:1038E00060912F04709130048091310490913204E2
:1038F0000E9468C4A30192010E94C9C40E94ECCC3A
:1039000060932F04709330048093310490933204B9
:103910008092D8099092D909A092DA09B092DB0975
:1039200007C00E94532DF701648B758B868B978B94
:103930001F5FF4E0EF0EF11C143009F098CF0E94E5
:10394000FE6D1BC50E9433B486E09EE00E94679323
:1039500014C58091530390915403009741F0DC010A
:103960002C91222321F060E00E941A7A06C50E9461
:1039700098B403C5009153031091540394E0F12CC3
:1039800040E0915021F1F8018081282F2B7F2134D4
:1039900021F421812133D9F407C08035C1F481811C
:1039A00080538A3048F013C0813421F0853421F4EB
:1039B00041E002C0FF24F39498012E5F3F4F89013C
:1039C0002F5F3F4FF80180818032C9F3DACF411178
:1039D0000E94DA2EFF2021F08DE696E00E94B42EA0
:1039E000C8010E94C330C9C40E944276C6C481E0A7
:1039F00080936203809361030E945B76BEC483E57B
:103A00000E94D82D882359F00E94A285823048F068
:103A10000E94D62E8BE496E00E94B42EAEC480E0C5
:103A200090E08C01112788E40E94D82D8823E1F0D2
:103A30000E94A2858A3A910544F00E94A2858530B1
:103A4000914034F40E94A28505C08AEA90E002C049
:103A500084E091E026E0209FF001219FF00D1124E9
:103A6000E85CFC4F9183808382E40E94D82D8823F8
:103A7000D9F00E94A285059744F00E94A285843760
:103A8000910534F40E94A28505C085E090E002C053
:103A900083E790E026E0209FF001219FF00D1124A4
:103AA000E85CFC4F9383828386E40E94D82D8823B0
:103AB00009F463C40E94A28597FD09C00E94A285F3
:103AC0008F3F910509F034F40E94A28505C080E083
:103AD00090E002C08FEF90E026E0209FF001219F50
:103AE000F00D1124E85CFC4F9583848346C40E944A
:103AF000CA85182F87FD41C400911D0384E40E94EC
:103B0000D82D882311F40C94A62B0E94532D6B0101
:103B10007C0120E030E0A9010E9463C4882341F1C8
:103B200004E01002F0011124E75EFC4FC082D18254
:103B3000E282F38220E030E0A901609119037091E4
:103B40001A0380911B0390911C030E9463C481118E
:103B50000CC080E090E0A0EEBFE380931903909347
:103B60001A03A0931B03B0931C0301E00C94A62B33
:103B700080E080931D030E94B968FFC30E94CA853C
:103B800087FDFBC37AE6E72E72E0F72E08EB19E01B
:103B9000E8ECCE2EE9E0DE2ED7018D917D010E946A
:103BA0008A2D882359F00E94532D0E94ECCCF801F5
:103BB00060837183828393830E94876D0C5F1F4FA4
:103BC000C016D10649F7D9C30E94CA8587FDD5C35F
:103BD0006AE6E62E62E0F62E08EB19E0D7018D9139
:103BE0007D010E948A2D882339F00E94532DF8010F
:103BF00064A375A386A397A30C5F1F4FF9E0083C4D
:103C00001F0761F7BAC380914F0387FF02C00C946E
:103C1000AC2B809150038E7011F00C94AC2B409122
:103C2000EC095091ED096091EE097091EF098BE379
:103C300096E00E94AC304091F0095091F1096091FA
:103C4000F2097091F30988E396E00E94AC3040914C
:103C5000F4095091F5096091F6097091F70985E32F
:103C600096E00E94AC308AE00E94AD2E86C380911F
:103C70004E0381FF02C00C94F42B80914F0381FF0F
:103C800002C00C94F42B809150038C7011F00C94B2
:103C9000F42B73C31F5FB4E0EB0EF11C133009F477
:103CA0009FC888E5810F0E948A2D882399F30E947E
:103CB000532DD7016D937D938D939C931397812FF3
:103CC0000E941A74E7CF4090630E5090640E60908B
:103CD000650E7090660E20910B0230910C0240919F
:103CE0000D0250910E02C301B2010E9479CB6A8F7E
:103CF0007B8F8C8F9D8F8090670E9090680EA09028
:103D0000690EB0906A0E20910F023091100240911E
:103D1000110250911202C501B4010E9479CB6E8F3D
:103D20007F8F88A399A3C0906B0ED0906C0EE0900B
:103D30006D0EF0906E0E209113023091140240919E
:103D4000150250911602C701B6010E9479CB6AA3F1
:103D50007BA38CA39DA32091170230911802409160
:103D6000190250911A02C301B2010E9479CB2B01B2
:103D70003C0120911B0230911C0240911D02509188
:103D80001E02C501B4010E9479CB4B015C01209158
:103D90001F02309120024091210250912202C7015E
:103DA000B6010E9479CB6B017C010E94DA2E86E07D
:103DB00096E00E94B42E83E50E948A2D882321F08C
:103DC0000E94F3858093090280910902882319F0EB
:103DD00088ED94E002C088EB97E00E94B42E8EEF4D
:103DE00095E00E94B42E4A8D5B8D6C8D7D8D80EBAD
:103DF0009AE10E94AC304E8D5F8D68A179A186E179
:103E00009DE00E94AC304AA15BA16CA17DA18AE03B
:103E10009DE00E94AC3089E99DE00E94B42E86EFBF
:103E200095E00E94B42EB301A20180EB9AE10E94BA
:103E3000AC30B501A40186E19DE00E94AC30B70131
:103E4000A6018AE09DE00E94AC308AE00E94AD2E7F
:103E500094C283E50E94D82D882331F00E94A28568
:103E6000909324028093230280914E0390914F03FC
:103E7000A0915003B0915103892B8A2B8B2B09F011
:103E80007CC2609123027091240282EF95E00E942F
:103E90002A3085E20E94AD2E8AE00E94AD2E6DC2CE
:103EA0000E94CA85F82E87FD68C283E50E94D82D3E
:103EB0000F2D0F2C000C110B882369F10E94A28595
:103EC000F801EE0FFF1FE050FE4F91838083000F3B
:103ED000111F000F111FF801E75DFD4F7F01BC01AD
:103EE000990F880B990B0E946AC42AE037ED43E2D0
:103EF0005CE30E94C9C4F801E75FFC4F2081318177
:103F0000428153810E94C9C4D7016D937D938D93E3
:103F10009C93139732C20E94DA2E85E40E94AD2E44
:103F200080E38F0D0E94AD2E000F111FF801E050AD
:103F3000FE4F608171818AEE95E00E942A3085E211
:103F40000E94AD2E8AE00E94AD2E17C283E50E942A
:103F5000D82D882321F00E94432D8B0102C004E05C
:103F600011E080E50E94D82D882349F00E94432D5E
:103F7000CB016938734128F088E893E102C088EEEC
:103F800093E0B8010E949379F8C185E40E943DB5A1
:103F9000811173C080E50E948A2D882351F00E9410
:103FA000532D6093BF0D7093C00D8093C10D9093FE
:103FB000C20D89E40E948A2D882381F00E94532D2E
:103FC0002CEA35EC47E25EE30E94C9C46093C30D5E
:103FD0007093C40D8093C50D9093C60D84E40E9428
:103FE0008A2D882381F00E94532D2CEA35EC47E27C
:103FF0005EE30E9473CC6093C70D7093C80D8093ED
:10400000C90D9093CA0D0E94DA2E4091BF0D5091B8
:10401000C00D6091C10D7091C20D84ED95E00E94BC
:10402000AC302CEA35EC47E25EE36091C30D709151
:10403000C40D8091C50D9091C60D0E9473CCAB014B
:10404000BC0180ED95E00E94AC302CEA35EC47E2F3
:104050005EE36091C70D7091C80D8091C90D90917C
:10406000CA0D0E94C9C4AB01BC018CEC95E00E9452
:10407000AC308AE00E94AD2E80C10E94D62E88ED21
:1040800095E00E94B42E79C183E50E948A2D182FF5
:10409000882371F00E94532D0E94E5CC70932E026C
:1040A00060932D0221E0672B09F020E0209350045B
:1040B00080E50E948A2D882359F020912D023091AD
:1040C0002E02232B11F00E94F3858093500455C1DA
:1040D000111153C10E94DA2E89EB95E00E94B42E93
:1040E00080915004882319F087EA9CE002C080EA9E
:1040F00095E00E94B42E60912D0270912E0288EA04
:1041000095E00E942A3084EA95E00E94B42E35C1E1
:104110000E94188632C187E00E943D7A81112DC12C
:104120000AE419E0EAE5F2E0FB8FEA8F9E012F5FD7
:104130003F4F190197E4C92E99E0D92E7901F80172
:104140006591759185919491AA8DBB8D8D909D906F
:10415000AD90BD90BB8FAA8FA50194010E9478CB32
:104160002B013C01F701608371838283938320E0FC
:1041700030E040EA51EC0E94D9CD87FD0AC020E032
:1041800030E040EA51E4C301B2010E9463C4181652
:1041900034F4F6018491181614F40C947A2CD70197
:1041A0008D909D90AD90BD907D0120E030E040EA83
:1041B00051ECC501B4010E94D9CD87FF02C00C9417
:1041C000862C20E030E040EA51E4C501B4010E94B1
:1041D00063C4181614F00C949B2C0C94862C0E942B
:1041E0001E69CBC00E942E8AC8C061E083E50E9490
:1041F000038691E089270E943B8BBFC02093080370
:104200000E946E8D10920803882309F4B6C00E94A4
:10421000DA2E89E595E00E94B42EAFC089E40E94B1
:104220008A2D81110C94D32C83E50E948A2D811153
:104230000C94D32C0C940F2DA0905104B0905204E8
:10424000C0905304D09054048BE40E94D82D88234E
:1042500039F10E94532D7B018C0120E030E0A9014F
:104260000E94D9CD87FD0AC020E030E040E251E451
:10427000B701C8010E9463C41816A4F48FE30E941A
:10428000AD2E8BE40E94AD2E8EEF94E00E94B42EF2
:1042900086EF94E00E94B42E88E798E10E94B42E45
:1042A000750186019701A801B501C6010E9463C48A
:1042B000882361F00E94126FC701D80180935104D6
:1042C00090935204A0935304B093540480914E03EE
:1042D00090914F03A0915003B0915103892B8A2BE9
:1042E0008B2B09F04AC00E94DA2E40915104509164
:1042F0005204609153047091540482E195E00E944D
:10430000AC308AE00E94AD2E38C081E08093A103DA
:104310001092070360E083E50E94038681112DC09F
:104320000E94CD822AC00E942FB527C00091A3030E
:104330001091A4030E94A8AB60938D0370938E0329
:1043400080938F03909390030023B9F00E94DA2E9C
:1043500084E50E94AD2EB8017727072E000C880B4C
:10436000990B0E940E3080E20E94AD2E88ED95E000
:104370000E94B42E02C00E942FB5E0910603F0E027
:10438000E15BF14F8081882339F083EF94E00E9454
:10439000B42E8AE00E94AD2E2F96FFAD2F97F0939A
:1043A000A6030C94292D11E002E02016310409F037
:1043B00010E020E030E0A901C701B6010E9463C40B
:1043C000881F8827881F1813A4C080E090E0A0E809
:1043D000BFE38AA39BA3ACA3BDA32A8D3B8D4C8DC9
:1043E0005D8DC501B4010E9478CB20E030E040E053
:1043F0005FE30E94C9C46A8F7B8F8C8F9D8F2E8D47
:104400003F8D48A159A1C301B2010E9478CB20E0A1
:1044100030E040E05FE30E94C9C46E8F7F8F88A3C5
:1044200099A32A8D3B8D4C8D5D8DCA01B9010E94E7
:10443000C9C44B015C012E8D3F8D48A159A1CA0111
:10444000B9010E94C9C49B01AC01C501B4010E941D
:1044500079CB0E9427CE4B015C019B01AC01C701C7
:10446000B6010E9478CB2B013C01A5019401C70144
:10447000B6010E9479CB9B01AC01C301B2010E943D
:10448000C9C46B017C0120E030E0A9010E94D9CDB4
:1044900087FD07C0C701B6010E9427CE2B013C0152
:1044A00003C0412C512C32016E8D7F8D88A199A1C2
:1044B0009058A50194010E9473CC2AA13BA14CA164
:1044C0005DA10E94C9C4A30192010E94C9C42A8DA2
:1044D0003B8D4C8D5D8D0E9479CB6B017C01A501DC
:1044E00094016A8D7B8D8C8D9D8D0E9473CC2AA149
:1044F0003BA14CA15DA10E94C9C4A30192010E94ED
:10450000C9C42E8D3F8D48A159A10E9479CB0C942E
:10451000151620E030E040E85FEB2AA33BA34CA354
:104520005DA35BCF0E94D62E81E399E00E94B42E5A
:1045300024CF20E030E0A901C701B6010E9463C486
:10454000882381F31AA21BA21CA21DA2D701C601B7
:10455000B0588A8F9B8FAC8FBD8F0AA11BA12CA155
:104560003DA130580E8F1F8F28A339A39C01AD01A8
:10457000BC01CD010E94C9C44B015C012E8D3F8D51
:1045800048A159A1CA01B9010E94C9C49B01AC014B
:10459000C501B4010E9479CB0E9427CE6AAF7BAFE0
:1045A0008CAF9DAF20915A0230915B0240915C022A
:1045B00050915D022EA33FA348A759A7A7019601DA
:1045C0006EA17FA188A599A50E9479CB6EAB7FAB28
:1045D00088AF99AF80915E0290915F02A0916002D6
:1045E000B09161028AA79BA7ACA7BDA72AA13BA156
:1045F0004CA15DA1BC01CD010E9479CB22966CAF8C
:104600007DAF8EAF9FAF22970091910310919203DF
:1046100020919303309194030EA71FA728AB39ABC9
:104620002EA93FA948AD59AD6EA57FA588A999A926
:104630000E9478CB6B017C01209195033091960309
:1046400040919703509198032AAB3BAB4CAB5DABC9
:1046500022962CAD3DAD4EAD5FAD22976AA97BA9E8
:104660008CA99DA90E9478CB4B015C01A701960102
:104670006A8D7B8D8C8D9D8D0E94C9C42B013C0160
:10468000A50194016E8D7F8D88A199A10E94C9C456
:104690009B01AC01C301B2010E9479CB2B013C010B
:1046A000A50194016A8D7B8D8C8D9D8D0E94C9C45E
:1046B0004B015C01A70196016E8D7F8D88A199A1A8
:1046C0000E94C9C49B01AC01C501B4010E9478CB12
:1046D000A30192010E94F8CB6B017C0120E030E045
:1046E000A9010E9463C487FF0AC02BED3FE049EC9B
:1046F00050E4C701B6010E9479CB6B017C012BED20
:104700003FE049EC50E4C701B6010E9473CC20E0C1
:1047100030E040EC51E40E94C9C40E9457CC0E9492
:10472000ECCC8B01672B11F401E010E092E029162C
:10473000310451F42BED3FE049EC50E4C701B601E0
:104740000E9478CB6B017C0120E030E0A901C70119
:10475000B6010E9463C4811122C02EA53FA548A9BD
:1047600059A96EA17FA188A599A50E9463C4811152
:1047700016C02AA93BA94CA95DA96AA57BA58CA551
:104780009DA50E9463C481110AC008E110E0FBED01
:10479000CF2EFFE0DF2EF9ECEF2EF0E4FF2E20917C
:1047A00062023091630240916402509165022AA72F
:1047B0003BA74CA75DA76091990370919A038091E4
:1047C0009B0390919C030E9478CB2B013C01A70195
:1047D00096016AAD7BAD8CAD9DAD0E94C9C44B0105
:1047E0005C0120E030E0A901C301B2010E9463C472
:1047F0008823C9F0A5019401C501B4010E94C9C470
:104800004B015C01A3019201C301B2010E94C9C422
:104810009B01AC01C501B4010E9479CB0E9427CE57
:104820004B015C010DC020E030E0A901C501B401DD
:104830000E94D9CD87FF04C0B7FAB094B7F8B094FE
:104840002FE632E143E85AE3C501B4010E9463C494
:1048500087FD13C280919D0390919E03A0919F03B9
:10486000B091A0038AAB9BABACABBDAB2091660211
:104870003091670240916802509169022EA73FA7CC
:1048800048AB59AB2AE037ED43E25CE36091250287
:104890007091260280912702909128020E94C9C43B
:1048A0006EA37FA388A799A7609123027091240229
:1048B000072E000C880B990B0E946AC49B01AC0167
:1048C0006EA17FA188A599A50E94C9C46E8B7F8B1C
:1048D000888F998FC501B4010E941BCD0E94ECCC3A
:1048E0001B016017710708F41801B10180E090E026
:1048F0000E9468C44B015C019B01AC01C701B60179
:104900000E9473CC6EA37FA388A799A7A5019401E9
:10491000C301B2010E9473CC2A966CAF7DAF8EAFFB
:104920009FAF2A972EA53FA548A959A96AA97BA997
:104930008CA99DA90E9478CBA50194010E9473CCFB
:104940002E966CAF7DAF8EAF9FAF2E972EA13FA15D
:1049500048A559A5CA01B9010E94C9C46B017C01CF
:104960009B01AC016EA17FA188A599A50E94C9C435
:1049700020E030E040EC50E40E9473CC9B01AC019D
:104980006EA17FA188A599A50E9478CB6AAB7BAB6D
:104990008CAB9DAB20E030E040E05FE3C701B601A7
:1049A0000E94C9C49B01AC0160E070E080E89FE315
:1049B0000E9478CB6AAF7BAF8CAF9DAF8AA59BA5D9
:1049C000ACA5BDA589879A87AB87BC870EA51FA517
:1049D00028A939A90D871E872F87388B0E94A8AB7D
:1049E0009B01AC0128533F4F4F4F5F4F26962CAF92
:1049F0003DAF4EAF5FAF26974A8C5B8C6C8C7D8C45
:104A000041E050E05BA74AA759E15EA78AA59BA5B4
:104A10008215930508F00BC10E9494650E94A8AB13
:104A2000DC01CB0126960CAD1DAD2EAD3FAD26971A
:104A3000801B910BA20BB30BB7FD10C00E94A8AB5B
:104A40009B01AC0128533F4F4F4F5F4F26962CAF31
:104A50003DAF4EAF5FAF26970E94E4303EA5315088
:104A60003EA73323E9F12E8D3F8D48A159A16AADB0
:104A70007BAD8CAD9DAD0E94C9C46B017C019201E0
:104A8000A3016AA97BA98CA99DA90E94C9C4A701F9
:104A900096010E9479CB7B018C019201A3016AAD42
:104AA0007BAD8CAD9DAD0E94C9C44B015C012E8DC8
:104AB0003F8D48A159A16AA97BA98CA99DA90E94F3
:104AC000C9C49B01AC01C501B4010E9478CB2B0184
:104AD0003C01C701D8018E8F9F8FA8A3B9A34FC0F7
:104AE0004AA55BA5BA0180E090E00E9468C42EA1AF
:104AF0003FA148A559A50E94C9C44B015C010E9471
:104B00006ECC6B017C01C501B4010E9419CE4B0132
:104B10005C01A70196016A8D7B8D8C8D9D8D0E9415
:104B2000C9C42B013C012AA13BA14CA15DA1C50137
:104B3000B4010E94C9C4A30192010E9479CB2B0148
:104B40003C01A50194016A8D7B8D8C8D9D8D0E9409
:104B5000C9C44B015C012AA13BA14CA15DA1C701C5
:104B6000B6010E94C9C49B01AC01C501B4010E94F9
:104B700078CB6E8F7F8F88A399A359E15EA79201AE
:104B8000A3016EA97FA988AD99AD0E9479CB6983F5
:104B90007A838B839C832E8D3F8D48A159A12296C9
:104BA0006CAD7DAD8EAD9FAD22970E9479CB6D83AC
:104BB0007E838F8398872A962CAD3DAD4EAD5FAD39
:104BC0002A9769857A858B859C850E9479CB698730
:104BD0007A878B879C872E962CAD3DAD4EAD5FAD11
:104BE0002E976D857E858F8598890E9479CB6D87FC
:104BF0007E878F87988BCE0101960E944D748E011F
:104C00000A5E1F4F9E01235F3F4FAE01475F5F4F1C
:104C1000BE016B5F7F4FCE0101960E9415B38823C2
:104C200031F08AA59BA501969BA78AA7EFCE80E1CC
:104C3000E1E9F3E0DE01119601900D928A95E1F72A
:104C4000CE0101960E944D748E010A5E1F4F9E0197
:104C5000235F3F4FAE01475F5F4FBE016B5F7F4FEA
:104C6000CE0101960E9415B380E1FE013196AAE5BE
:104C7000B2E001900D928A95E1F70E94A8AB609393
:104C80008D0370938E0380938F039093900375CB65
:104C90000E94126F10920A020E94A8AB60938D03CB
:104CA00070938E0380938F039093900380912502DD
:104CB00090912602A0912702B09128028093A90327
:104CC0009093AA03A093AB03B093AC03809123020B
:104CD000909124029093A8038093A70384E690E028
:104CE000909324028093230281E0809362030E94C8
:104CF0005B768AE50E948A2DA82E8823A9F081E0A0
:104D00000E943A74182F82E00E943A74BB24B39434
:104D1000811101C0B12C111109C088E50E948A2DB2
:104D2000982E811103C0FAC0B12CF7CFBB2009F433
:104D3000EAC0AB10F6C0BB24B39499249394AA2480
:104D4000A39482E50E94D82D882369F00E94532DF8
:104D50006B017C0120E030E0A9010E9463C488233C
:104D600009F45EC006C0C12CD12CE0EAEE2EE0E4CE
:104D7000FE2E911005C0B11003C0AA2009F49FC0F7
:104D800020E030E0A901C701B6010E9479CB762E60
:104D9000872E6C01E0906202F09063020091640241
:104DA000109165029701A8010E9463C487FD03C0AA
:104DB000E72CF82C860180E090E0A0E8B0E489833D
:104DC0009A83AB83BC8320E030E04EE353E4B70129
:104DD000C8010E9463C487FF05C0BE2DAF2DF02F10
:104DE000E12F04C0B0E0A0E0FEE3E3E420915E0226
:104DF00030915F02409160025091610260915A02CD
:104E000070915B0280915C0290915D028E010F5F58
:104E10001F4F6801EB2EFA2E0F2F1E2F0E94FE74DB
:104E2000992019F080E00E9466B6BB2019F081E05D
:104E30000E9466B6AA2009F442C083E00E943D7A2F
:104E400081113DC00E94BB75E0906202F090630248
:104E5000009164021091650280E090E0A4EBB2E45E
:104E60008093910390939203A0939303B093940340
:104E700080E090E0AEEBB2E48093950390939603CC
:104E8000A0939703B0939803E0929903F0929A034A
:104E900000939B0310939C0319821A821B821C822D
:104EA0009E012F5F3F4F69019C01AD0160E070E002
:104EB00084EB92E40E94FE7482E00E9466B60E9437
:104EC000BB7580916103809362038091A9039091E7
:104ED000AA03A091AB03B091AC03809325029093F9
:104EE0002602A0932702B09328028091A7039091F5
:104EF000A803909324028093230283E08093080206
:104F00000E94BD753ACABB24B39489E50E948A2DDC
:104F10008B1509F40ECF9B2CB82E13CFB11011CFE7
:104F2000F4CF9B2C0ECF0E94E4300C94F718109213
:104F300052031093A6030E9498B41FCA88E50E94EA
:104F40008A2D8111159889E50E948A2D8111179863
:104F50008AE50E948A2D8111429885E40E948A2D5B
:104F6000882309F40ACAA09808CA60E08CE099E096
:104F70000E94CA79159817984298A098FEC983E5AF
:104F80000E94D82D882359F00E94532D0E94E5CC11
:104F9000CB010E941E6161E080E00E9446B50E9444
:104FA0005FB5EBC983E50E94D82D8A8F811105C0BA
:104FB00082E50E94D82D882359F10E94532D0E942A
:104FC000E5CCCB010E941E6161E081E00E9446B504
:104FD0006091BC0D7091BD0D072E000C880B990BD4
:104FE0000E946AC46B017C018090B80D9090B90D4D
:104FF000A090BA0DB090BB0DA50194010E94D9CD2F
:1050000018160CF49EC10A8D002309F481C111E029
:105010000E945FB5112309F4B0C91091370361965E
:105020001FAF61971092370381E0809307021AA2A5
:105030001BA21CA21DA21AAA1BAA1CAA1DAA239667
:105040001FAE23970CE327960FAF27971CE12B96F3
:105050001FAF2B9706E460960FAF6097C12CD12C41
:1050600020E8E22E3FEBF32E1E8E11E01AAF812CCA
:10507000912C54016091BC0D7091BD0D072E000C58
:10508000880B990B0E946AC4162F072F782E692E61
:105090009601A7010E9463C4882331F12091B80DC5
:1050A0003091B90D4091BA0D5091BB0D8A8D612F91
:1050B000702F811109C0872D962D0E9463C4881F0F
:1050C0008827881F8E8F16C0872D962D0E9463C457
:1050D00087FF0FC080910702882309F413C1109243
:1050E00007020E9498B40EC11C2D0D2D7E2C6F2C32
:1050F00001C01E8E0E94A8AB6B017C01DC01CB01BC
:105100002AA93BA94CA95DA9821B930BA40BB50B43
:10511000B7FD33C0D701C60188519C4FAF4FBF4F79
:105120008AAB9BABACABBDAB8EAD0E942E6182EE69
:1051300098E00E94B42E81149104A104B104B9F046
:10514000D501C401805F984DAF4FBF4FBC01CD0169
:105150006C197D098E099F0928EE33E040E050E08C
:105160000E94B9CACA01B9010E940E3003C08FE380
:105170000E94AD2E8AE00E94AD2E0E94E4300E9473
:10518000A8AB60938D0370938E0380938F039093ED
:1051900090039091B80D9EA3A091B90DAAA7B091CC
:1051A000BA0DBEA7E091BB0DEEAB292F3A2F4B2FC6
:1051B0005E2F612F702F872D962D0E9478CB1B01BB
:1051C0002C0120E030E0A9010E94D9CD87FF04C066
:1051D00057FA509457F8509481149104A104B104E3
:1051E000E1F420E030E040E85FE3C201B1010E9459
:1051F00063C487FF1EC0FAADFF2339F095E0892E06
:105200009DE0992EA12CB12C03C0812C912C54012E
:105210008C0C9D1CAE1CBF1C0CC020E030E040E498
:1052200050E4C201B1010E94D9CD181614F4460110
:1052300057012E8D222309F448C08AA19BA1ACA15D
:10524000BDA1892B8A2B8B2B61F0D701C6012AA126
:105250003BA14CA15DA1821B930BA40BB50BB7FD29
:1052600034C02EA13AA54EA55EA923966FAD239713
:1052700027967FAD27972B968FAD2B9760969FAD86
:1052800060970E9478CB20E030E040EC5FE30E9422
:1052900063C487FD1FCFD701C601805A9541AF4F28
:1052A000BF4F8AA39BA3ACA3BDA39EA123969FAF90
:1052B0002397AAA52796AFAF2797BEA52B96BFAF7A
:1052C0002B97EEA96096EFAF609780910702882335
:1052D00009F400CF81149104A104B10431F41AAE91
:1052E000C12ED02EE72CF62CC5CEF0E1CF1AF7E276
:1052F000DF0AE108F108C818D908EA08FB08F7FC3A
:10530000EECFE8CE61960FAD61970093370335C8B5
:10531000A5019401C701B6010E94D9CD18168CF0E1
:1053200088EA98E09F938F9386EE98E09F938F93FF
:105330001F920E94017A0F900F900F900F900F9084
:1053400066CE87EB98E0EECF83E50E94D82D8823C8
:1053500009F413C80E94532D0E94E5CC63377105F0
:1053600074F4962F872F90933003809331030E941B
:10537000536061E080E00E9446B50C94BD2193E744
:1053800080E0F1CF83E50E94D82D8A8F811107C07C
:1053900082E50E94D82D882311F40C94BD210E942F
:1053A000532D0E94E5CC633771050CF09AC1962FFE
:1053B000872F90933003809331030E94536060E005
:1053C00081E00E9446B56091300370913103072E51
:1053D000000C880B990B0E946AC420912C03309119
:1053E0002D0340912E0350912F030E94D9CD181602
:1053F0001CF483EB98E002C084EA98E060E00E942D
:10540000CA7981E0809307021AA21BA21CA21DA2E6
:1054100022961CAE1DAE1EAE1FAE22971AAE0CE336
:1054200023960FAF23971CE127961FAF279706E41B
:105430002B960FAF2B97C12CD12C10E8E12E0FEB40
:10544000F02E1E8E11E01AAB812C912C540160912C
:10545000300370913103072E000C880B990B0E94CA
:105460006AC4162F072F782E692E9601A7010E9475
:1054700063C4882341F120912C0330912D03409186
:105480002E0350912F038A8D612F702F811109C037
:10549000872D962D0E9463C4881F8827881F8E8FB2
:1054A00018C0872D962D0E9463C487FF11C080917C
:1054B0000702882311F40C94BD21109207020E9468
:1054C00098B40C94BD211C2D0D2D7E2C6F2C01C089
:1054D0001E8E0E94A8AB6B017C01DC01CB012296E1
:1054E0002CAD3DAD4EAD5FAD2297821B930BA40B4F
:1054F000B50BB7FD35C0D701C60188519C4FAF4FE2
:10550000BF4F22968CAF9DAFAEAFBFAF229780E06A
:105510000E942E6182EE98E00E94B42E81149104C4
:10552000A104B104B9F0D501C401805F984DAF4F1B
:10553000BF4FBC01CD016C197D098E099F0928EE72
:1055400033E040E050E00E94B9CACA01B9010E94AC
:105550000E3003C08FE30E94AD2E8AE00E94AD2E74
:105560000E94E4300E94A8AB60938D0370938E0379
:1055700080938F039093900390912C039EA3A0910E
:105580002D03AAA7B0912E03BEA7E0912F03EEAB87
:10559000292F3A2F4B2F5E2F612F702F872D962D9D
:1055A0000E9478CB1B012C0120E030E0A9010E9471
:1055B000D9CD87FF04C057FA509457F850948114FE
:1055C0009104A104B104E1F420E030E040E85FE39D
:1055D000C201B1010E9463C487FF1EC0FAA9FF2364
:1055E00039F0B5E08B2EBDE09B2EA12CB12C03C071
:1055F000812C912C54018C0C9D1CAE1CBF1C0CC02A
:1056000020E030E040E450E4C201B1010E94D9CD75
:10561000181614F4460157012E8D222309F444C0B4
:105620008AA19BA1ACA1BDA1892B8A2B8B2B61F0F8
:10563000D701C6012AA13BA14CA15DA1821B930BFE
:10564000A40BB50BB7FD30C02EA13AA54EA55EA99F
:105650006AAD23967FAD239727968FAD27972B961C
:105660009FAD2B970E9478CB20E030E040E85FE3CD
:105670000E9463C487FD1BCFD701C601805A9541A4
:10568000AF4FBF4F8AA39BA3ACA3BDA39EA19AAF6C
:10569000AAA52396AFAF2397BEA52796BFAF27979E
:1056A000EEA92B96EFAF2B9780910702882309F480
:1056B000FECE81149104A104B10431F41AAAC12EC2
:1056C000D02EE72CF62CC3CEF0E1CF1AF7E2DF0A9A
:1056D000E108F108C818D908EA08FB08F7FCEECF82
:1056E000E6CE93E780E065CE0E94126F88E50E94C7
:1056F0008A2D882331F0159A809122038E7F809322
:10570000220389E50E948A2D882331F0179A80911F
:1057100022038D7F809322038AE50E948A2D8823AD
:1057200031F0429A809122038B7F8093220385E49B
:105730000E948A2D882311F40C94BD210E94332EDF
:105740000C94BD210E94226F0C94BD21602F83E533
:105750000E9403860C94B91D83E50E94D82D8823EE
:1057600091F00E94532D6093EC097093ED098093A2
:10577000EE099093EF096093F4097093F509809313
:10578000F6099093F70980E50E94D82D882351F0FF
:105790000E94532D6093EC097093ED098093EE09FC
:1057A0009093EF0982E50E94D82D882351F00E9442
:1057B000532D6093F0097093F1098093F20990934F
:1057C000F30984E50E94D82D882311F40C94BD219F
:1057D0000E94532D6093F4097093F5098093F609A4
:1057E0009093F7090C94BD2182E40E948A2D8823AE
:1057F00051F00E94A6856093C8097093C9098093EF
:10580000CA099093CB0983E50E948A2D882351F021
:105810000E94532D6093F8097093F9098093FA0957
:105820009093FB0984E50E948A2D882351F00E9401
:10583000532D6093FC097093FD098093FE099093AA
:10584000FF098AE40E948A2D882311F40C94BD215B
:105850000E94532D6B017C012AE037ED43E25CE3AB
:105860000E94D9CD87FD3EC02AE939E949E95EE3C6
:10587000C701B6010E9463C41816A4F1C0921F04A8
:10588000D0922004E0922104F09222046091B809A1
:105890007091B9098091BA099091BB090E9468C4BE
:1058A0004B015C0123EF34E045E35FE3C701B60140
:1058B0000E94C9C42AE136EF45E95EE30E9473CC39
:1058C0009B01AC01C501B4010E94C9C40E9427CE4E
:1058D00060933704709338048093390490933A04AA
:1058E0000C94BD210E94D62E86E196E00E94B42E33
:1058F0000C94BD21B7FAB094B7F8B094D7018D924B
:105900009D92AD92BC9213970C94CF200E94D62EFC
:1059100082E895E00E94B42E61E084E795E00E9461
:10592000CA790E9470A768E270E088EC90E00E945B
:1059300093790C94BD210C5F1F4FBFEFCB1ADB0A8C
:10594000E6E5F9E0E017F10711F00C949F208DE0F7
:10595000E82E83E0F82E10E0F10181919191A19160
:10596000B1911F01F70181939193A193B1937F01AD
:10597000812F0E941A741F5F133071F70E94BD754A
:1059800060E084E695E00E94CA7963E972E084E60B
:1059900090E00E9493796AEB72E084E690E00E94C6
:1059A00093790C94BD210E94532D6B017C0120E062
:1059B00030E040E85FEB0E94D9CD87FD2AC020E0AF
:1059C00030E040E85FE3C701B6010E9463C41816E7
:1059D00004F12091160E3091170E4091180E50913F
:1059E000190EC701B6010E9463C4882311F40C94F8
:1059F000BD21C092160ED092170EE092180EF092B2
:105A0000190E0E94D3B00E94BB750E94BD750C9404
:105A1000BD218FE295E00E94B42E0C94BD210E941E
:105A2000DA2E83E295E00E94B42E8DE195E00E948B
:105A3000B42E6091160E7091170E8091180E9091F1
:105A4000190E46E00E9437308AE00E94AD2E0C9479
:105A5000BD21C05BDF4F0FB6F894DEBF0FBECDBFD8
:105A6000DF91CF911F910F91FF90EF90DF90CF903A
:105A7000BF90AF909F908F907F906F905F904F906E
:105A80003F902F9008958091660A9091670A009741
:105A900031F04AE050E060E070E00C9454C160E006
:105AA00070E0CB0108950F931F93CF938091660A06
:105AB0009091670A009711F1FC018F01C1912C2F81
:105AC0002F7DA9F0C53411F0C536B9F7F801108261
:105AD00060E070E08091660A9091670A0E94F8BFCA
